:020000020000FC
:040000000C94270035
:040014000C94B80090
:100034000C947B007E306D79335B5F707F7B1F1C7B
:100044001F1E1F1E1F1F1E1F1E1F0FEF0DBF08E0C8
:100054000EBFF89400E80093610004E0009361008F
:10006400389839983A98389A399A3A9A209821982F
:10007400289829980FEF0AB900E00BB90E946E0086
:100084000E94690000E00093C10001E000936F004A
:1000940007E000936C0002E00093680078946BB969
:1000A400113059F0123051F0133049F0143051F03E
:1000B400153059F0163051F0F2CFF1CFF0CF199B33
:1000C4001A9BEDCF199B1A9BEACFE9CFE8CFE8E35F
:1000D400F0E064916BB9089501EE009385000BE79D
:1000E4000093840000E00093800002E0009381000C
:1000F40008950F930FB70F9301EE009385000BE75C
:100104000093840033953A3009F530E04395463046
:10011400E9F440E053955A30C9F4723010F0543089
:10012400A9F455277395733089F477278395E1E211
:10013400EA0F04918A3051F488279395901730F090
:1001440088279927A395AD3009F4AA270F910FBFEB
:100154000F9118950F930FB70F93A89A04E606BD55
:10016400439544360F910FBF0F9118950F930FB716
:100174000F93189B1395173011F4112713C01130E6
:1001840059F0123051F0133049F0143041F0153069
:1001940039F0163031F006C005C004C003C002C0F7
:1001A40001C000C00F910FBF0F9118950F930FB7A7
:1001B4000F93A89A04E606BD439544360F910FBFEA
:0401C4000F911895EA
:00000001FF
