:020000020000FC
:040000000C942D002F
:040014000C947403D1
:040024000C949C0399
:040034000C94EC023A
:100040000C9464037E306D79335B5F707F7B312865
:10005000313031303131303130310FEF0DBF08E008
:100060000EBFF89400E80093610004E00093610083
:1000700005E005BD0FEF06BD05E0009381000BE133
:10008000009385000EE10093840007E00093B10027
:100090000FEC0093B200389839983A98409A419AF8
:1000A000429A20982198229823982A982B98289849
:1000B00029983B9A3C9A3D9A259A249A0FEF0AB9BF
:1000C00000E00BB90E94E70200E00093C10001E0EC
:1000D00000936E0001E000936F0001E00093700058
:1000E00007E000936C0002E000936800992422244A
:1000F000332444245524662477248824AA24BB244A
:10010000CC24DD24EE24FF240027112722273327C7
:10011000442755276627772788279927AA27BB27AB
:1001200078946BB9103089F01130A9F01230C9F011
:100130001330E9F0143009F1153029F1163049F186
:10014000173069F1183081F1ECCF43984498459805
:100150000E94DB00E6CF43984498459A0E94240110
:10016000E0CF4398449A45980E945901DACF4398CA
:10017000449A459A0E948E01D4CF439A4498459858
:100180000E94FF01CECF439A4498459A0E94BF0136
:10019000C8CF439A449A45980E943A02C2CF439AE4
:1001A000449A459A0E9468024398449845982D9A2B
:1001B0000E949A02B6CF01E000936F00713061F0A7
:1001C0007230A9F07330F1F0743039F1813009F0F8
:1001D00008950E941801EFCFE4E4F0E0E90D649186
:1001E0006BB9289829982A982B9A71E00895E4E42D
:1001F000F0E0E20D64916BB9289829982B982A9A1F
:1002000072E00895E4E4F0E0E30D64916BB928989E
:100210002B982A98299A73E00895E4E4F0E0E40D1D
:1002200064916BB92B9829982A98289A70E00895C0
:100230009A1441F42B1431F43C1421F44D1411F4AC
:100240002C9A01C02C980895713039F0723081F0E9
:100250007330C9F0743011F10895E4E4F0E0E70D73
:1002600064916BB9289829982A982B9A71E008957F
:10027000E4E4F0E0E80D64916BB9289829982B9894
:100280002A9A72E00895E4E4F0E0E50D64916BB918
:1002900028982B982A98299A73E00895E4E4F0E0CE
:1002A000E60D64916BB92B9829982A98289A70E0EA
:1002B0000895002700936F0046B1319B0E946601AC
:1002C000329B0E947D010E94DB000895042D0230C4
:1002D00051F03394032D0A3011F000270895332490
:1002E0000027439408953394032D043011F0002720
:1002F000089500273324442408953A94032D0F3F92
:1003000009F0089509E0302E4A94042D0F3F09F0BA
:10031000089503E0302E02E0402E08950027009358
:100320006F0046B1319B0E949B01329B0E94AC0141
:100330000E94DB0008959394092D0A3011F00027E4
:100340000895002799242394022D063009F008957A
:1003500000272224992408959A94092D0F3F11F023
:100360000027089509E0902E2A94022D0F3F11F0E6
:100370000027089509E0902E05E0202E089546B14B
:10038000319B0E94C901329B0E94C9010E94240135
:1003900008955394052D0A3011F455246394EEE426
:1003A000F0E0E50F3491062D000F000F000F000F55
:1003B000050D031710F00E94DE01089501E0502E94
:1003C00066240895062D003049F05A94052D0F3FFC
:1003D00009F0089509E0502E6A9408955A94052D65
:1003E000003009F00895EEE4F0E0E50F3491632E5B
:1003F000660C660C660C660C3F70562E089546B16E
:10040000319B0E940902329B0E9422020E94240119
:1004100008955395082D013051F07394072D0A303B
:1004200011F000270895002777248394089573948A
:10043000072D033009F00895552701E0702E00279D
:10044000802E08955A95082D003049F07A94072D92
:100450000F3F09F0089509E0702E8A9408957A9468
:10046000072D003009F008955CE002E0702E01E0F5
:10047000802E089546B1319B0E944402329B0E9417
:1004800055020E94B2020895A3940A2D0A3011F079
:10049000002708950027AA24B3940B2D063009F0F5
:1004A00008950027BB24AA240895AA940A2D0F3F7B
:1004B00011F00027089509E0A02EBA940B2D0F3FEC
:1004C00011F00027089509E0A02E05E0B02E089550
:1004D00046B1319B0E947202329B0E9489020E94A7
:1004E000B20208950D2D023051F0C3940C2D0A3044
:1004F00011F000270895CC240027D3940895C394C5
:100500000C2D043011F0002708950027CC24DD24A1
:100510000895CA940C2D0F3F09F0089509E0C02EEC
:10052000DA940D2D0F3F09F0089503E0C02E02E08C
:10053000D02E089546B1319B0E94A402329B0E94A6
:10054000A9020E94B2020895439A4498459881E016
:10055000089543984498459A80E0AA24BB24CC246B
:10056000CC240895713039F0723081F07330C9F0C5
:10057000743011F10895E4E4F0E0EA0D64916BB990
:10058000289829982A982B9A71E00895E4E4F0E0DD
:10059000EB0D64916BB9289829982B982A9A72E0F0
:1005A0000895E4E4F0E0EC0D64916BB928982B9881
:1005B0002A98299A73E00895E4E4F0E0ED0D64913F
:1005C0006BB92B9829982A98289A70E00895E4E44A
:1005D000F0E064916BB908950F930FB70F930BE19F
:1005E000009385000EE1009384009394092D0A3056
:1005F00081F4002799242394022D063051F400271A
:100600002224042D023059F03394032D0A3011F0C6
:1006100057C056C0992422243324439451C03394A4
:10062000032D043009F04CC099242224332444249F
:100630006294650CEEE4F0E0E50F64916616A1F0BB
:100640005394052D0A3009F03BC099242224332409
:10065000442455246294650CEEE4F0E0E50F6491C7
:10066000661611F063942CC00027992422243324A9
:100670004424662401E0502E5395082D013079F072
:100680007394072D0A3009F01BC0002799242224F7
:1006900033244424772401E0502E839411C07394B2
:1006A000072D033009F00CC099242224332444245C
:1006B0005524662401E0072D01E0052D552700C0D3
:1006C0000F910FBF0F9118950F930FB70F93A89A23
:1006D0000FEF06BD7395753009F002C0772700C093
:1006E0000F910FBF0F9118950F930FB70F93309B7A
:1006F0001395193011F411271BC0103081F01130FF
:1007000079F0123071F0133069F0143069F015305F
:1007100051F0163051F0173049F0183041F008C050
:1007200007C006C005C004C003C002C001C000C0AD
:100730000F910FBF0F9118950F930FB70F930FECF9
:100740000093B200B395BA3011F41D9ABB270F91F4
:060750000FBF0F91189588
:00000001FF
